{
  "_format": "hh-sol-artifact-1",
  "contractName": "ScoreBoard",
  "sourceName": "contracts/ScoreBoard.sol",
  "abi": [
    {
      "inputs": [],
      "stateMutability": "nonpayable",
      "type": "constructor"
    },
    {
      "anonymous": false,
      "inputs": [
        {
          "indexed": true,
          "internalType": "address",
          "name": "player",
          "type": "address"
        },
        {
          "indexed": false,
          "internalType": "uint256",
          "name": "newBestScore",
          "type": "uint256"
        }
      ],
      "name": "BestScoreUpdated",
      "type": "event"
    },
    {
      "anonymous": false,
      "inputs": [
        {
          "indexed": false,
          "internalType": "bool",
          "name": "paused",
          "type": "bool"
        }
      ],
      "name": "ContractPaused",
      "type": "event"
    },
    {
      "anonymous": false,
      "inputs": [
        {
          "indexed": true,
          "internalType": "address",
          "name": "oldOwner",
          "type": "address"
        },
        {
          "indexed": true,
          "internalType": "address",
          "name": "newOwner",
          "type": "address"
        }
      ],
      "name": "GameOwnerUpdated",
      "type": "event"
    },
    {
      "anonymous": false,
      "inputs": [
        {
          "indexed": true,
          "internalType": "address",
          "name": "player",
          "type": "address"
        },
        {
          "indexed": false,
          "internalType": "uint256",
          "name": "score",
          "type": "uint256"
        },
        {
          "indexed": false,
          "internalType": "uint256",
          "name": "timestamp",
          "type": "uint256"
        },
        {
          "indexed": false,
          "internalType": "bytes32",
          "name": "gameHash",
          "type": "bytes32"
        }
      ],
      "name": "ScoreRecorded",
      "type": "event"
    },
    {
      "inputs": [],
      "name": "MIN_TIME_BETWEEN_SCORES",
      "outputs": [
        {
          "internalType": "uint256",
          "name": "",
          "type": "uint256"
        }
      ],
      "stateMutability": "view",
      "type": "function"
    },
    {
      "inputs": [],
      "name": "gameOwner",
      "outputs": [
        {
          "internalType": "address",
          "name": "",
          "type": "address"
        }
      ],
      "stateMutability": "view",
      "type": "function"
    },
    {
      "inputs": [],
      "name": "getContractInfo",
      "outputs": [
        {
          "internalType": "address",
          "name": "_gameOwner",
          "type": "address"
        },
        {
          "internalType": "bool",
          "name": "_paused",
          "type": "bool"
        },
        {
          "internalType": "uint256",
          "name": "_minTimeBetweenScores",
          "type": "uint256"
        }
      ],
      "stateMutability": "view",
      "type": "function"
    },
    {
      "inputs": [
        {
          "internalType": "address",
          "name": "_player",
          "type": "address"
        }
      ],
      "name": "getPlayerBestScore",
      "outputs": [
        {
          "internalType": "uint256",
          "name": "",
          "type": "uint256"
        }
      ],
      "stateMutability": "view",
      "type": "function"
    },
    {
      "inputs": [
        {
          "internalType": "address",
          "name": "_player",
          "type": "address"
        }
      ],
      "name": "getPlayerScores",
      "outputs": [
        {
          "components": [
            {
              "internalType": "uint256",
              "name": "score",
              "type": "uint256"
            },
            {
              "internalType": "uint256",
              "name": "timestamp",
              "type": "uint256"
            },
            {
              "internalType": "string",
              "name": "playerName",
              "type": "string"
            },
            {
              "internalType": "bytes32",
              "name": "gameHash",
              "type": "bytes32"
            }
          ],
          "internalType": "struct ScoreBoard.Score[]",
          "name": "",
          "type": "tuple[]"
        }
      ],
      "stateMutability": "view",
      "type": "function"
    },
    {
      "inputs": [
        {
          "internalType": "address",
          "name": "_player",
          "type": "address"
        }
      ],
      "name": "getScoreCount",
      "outputs": [
        {
          "internalType": "uint256",
          "name": "",
          "type": "uint256"
        }
      ],
      "stateMutability": "view",
      "type": "function"
    },
    {
      "inputs": [
        {
          "internalType": "address",
          "name": "",
          "type": "address"
        }
      ],
      "name": "lastScoreTimestamp",
      "outputs": [
        {
          "internalType": "uint256",
          "name": "",
          "type": "uint256"
        }
      ],
      "stateMutability": "view",
      "type": "function"
    },
    {
      "inputs": [],
      "name": "paused",
      "outputs": [
        {
          "internalType": "bool",
          "name": "",
          "type": "bool"
        }
      ],
      "stateMutability": "view",
      "type": "function"
    },
    {
      "inputs": [
        {
          "internalType": "address",
          "name": "",
          "type": "address"
        }
      ],
      "name": "playerBestScore",
      "outputs": [
        {
          "internalType": "uint256",
          "name": "",
          "type": "uint256"
        }
      ],
      "stateMutability": "view",
      "type": "function"
    },
    {
      "inputs": [
        {
          "internalType": "address",
          "name": "",
          "type": "address"
        },
        {
          "internalType": "uint256",
          "name": "",
          "type": "uint256"
        }
      ],
      "name": "playerScores",
      "outputs": [
        {
          "internalType": "uint256",
          "name": "score",
          "type": "uint256"
        },
        {
          "internalType": "uint256",
          "name": "timestamp",
          "type": "uint256"
        },
        {
          "internalType": "string",
          "name": "playerName",
          "type": "string"
        },
        {
          "internalType": "bytes32",
          "name": "gameHash",
          "type": "bytes32"
        }
      ],
      "stateMutability": "view",
      "type": "function"
    },
    {
      "inputs": [
        {
          "internalType": "uint256",
          "name": "_score",
          "type": "uint256"
        },
        {
          "internalType": "string",
          "name": "_playerName",
          "type": "string"
        },
        {
          "internalType": "address",
          "name": "_playerAddress",
          "type": "address"
        },
        {
          "internalType": "bytes32",
          "name": "_gameHash",
          "type": "bytes32"
        }
      ],
      "name": "recordScore",
      "outputs": [],
      "stateMutability": "nonpayable",
      "type": "function"
    },
    {
      "inputs": [
        {
          "internalType": "uint256",
          "name": "_score",
          "type": "uint256"
        },
        {
          "internalType": "string",
          "name": "_playerName",
          "type": "string"
        },
        {
          "internalType": "bytes32",
          "name": "_gameHash",
          "type": "bytes32"
        }
      ],
      "name": "recordScoreEmergency",
      "outputs": [],
      "stateMutability": "nonpayable",
      "type": "function"
    },
    {
      "inputs": [
        {
          "internalType": "address",
          "name": "_newOwner",
          "type": "address"
        }
      ],
      "name": "setGameOwner",
      "outputs": [],
      "stateMutability": "nonpayable",
      "type": "function"
    },
    {
      "inputs": [
        {
          "internalType": "bool",
          "name": "_paused",
          "type": "bool"
        }
      ],
      "name": "setPaused",
      "outputs": [],
      "stateMutability": "nonpayable",
      "type": "function"
    },
    {
      "inputs": [
        {
          "internalType": "bytes32",
          "name": "",
          "type": "bytes32"
        }
      ],
      "name": "usedGameHashes",
      "outputs": [
        {
          "internalType": "bool",
          "name": "",
          "type": "bool"
        }
      ],
      "stateMutability": "view",
      "type": "function"
    }
  ],
  "bytecode": "0x60806040526004805460ff60a01b1916905534801561001d57600080fd5b50600480546001600160a01b031916331790556110558061003f6000396000f3fe608060405234801561001057600080fd5b50600436106100f55760003560e01c8063a418a2d711610097578063cd38268011610066578063cd38268014610256578063e66254b71461027f578063f6b12f281461029f578063f96f7e75146102ca57600080fd5b8063a418a2d7146101e0578063a8117484146101f3578063b16173f614610213578063b162f2571461023657600080fd5b806374f819af116100d357806374f819af1461015b5780637946f9b11461016e5780637cc1f867146101a5578063915ec958146101d857600080fd5b806316c38b3c146100fa5780635c975abb1461010f57806373055bc314610138575b600080fd5b61010d610108366004610b72565b6102dd565b005b60045461012390600160a01b900460ff1681565b60405190151581526020015b60405180910390f35b61014b610146366004610bb7565b610368565b60405161012f9493929190610c27565b61010d610169366004610c57565b61043d565b61019761017c366004610c57565b6001600160a01b031660009081526020819052604090205490565b60405190815260200161012f565b600454604080516001600160a01b0383168152600160a01b90920460ff1615156020830152601e9082015260600161012f565b610197601e81565b61010d6101ee366004610d15565b610501565b610197610201366004610c57565b60016020526000908152604090205481565b610123610221366004610d74565b60036020526000908152604090205460ff1681565b610249610244366004610c57565b6107fb565b60405161012f9190610d8d565b610197610264366004610c57565b6001600160a01b031660009081526001602052604090205490565b61019761028d366004610c57565b60026020526000908152604090205481565b6004546102b2906001600160a01b031681565b6040516001600160a01b03909116815260200161012f565b61010d6102d8366004610e19565b61091e565b6004546001600160a01b031633146103105760405162461bcd60e51b815260040161030790610e69565b60405180910390fd5b60048054821515600160a01b0260ff60a01b199091161790556040517f752d7e161ff5146f80e3820893176eb40532811e5e20400dfdde57455213706a9061035d90831515815260200190565b60405180910390a150565b6000602052816000526040600020818154811061038457600080fd5b9060005260206000209060040201600091509150508060000154908060010154908060020180546103b490610eaf565b80601f01602080910402602001604051908101604052809291908181526020018280546103e090610eaf565b801561042d5780601f106104025761010080835404028352916020019161042d565b820191906000526020600020905b81548152906001019060200180831161041057829003601f168201915b5050505050908060030154905084565b6004546001600160a01b031633146104675760405162461bcd60e51b815260040161030790610e69565b6001600160a01b0381166104af5760405162461bcd60e51b815260206004820152600f60248201526e496e76616c6964206164647265737360881b6044820152606401610307565b600480546001600160a01b038381166001600160a01b0319831681179093556040519116919082907f8b9f5a3953e06358dbef331b0c981954ecb1a96d7de041b6d9930af74b4da56c90600090a35050565b6004546001600160a01b0316331461052b5760405162461bcd60e51b815260040161030790610e69565b600454600160a01b900460ff161561057a5760405162461bcd60e51b815260206004820152601260248201527110dbdb9d1c9858dd081a5cc81c185d5cd95960721b6044820152606401610307565b600084116105ca5760405162461bcd60e51b815260206004820152601c60248201527f53636f7265206d7573742062652067726561746572207468616e2030000000006044820152606401610307565b60008181526003602052604090205460ff16156106225760405162461bcd60e51b815260206004820152601660248201527511d85b59481a185cda08185b1c9958591e481d5cd95960521b6044820152606401610307565b6001600160a01b03821660009081526002602052604090205461064790601e90610ee9565b4210156106965760405162461bcd60e51b815260206004820152601960248201527f546f6f20736f6f6e2073696e6365206c6173742073636f7265000000000000006044820152606401610307565b6000818152600360209081526040808320805460ff19166001908117909155815160808101835288815242818501908152818401898152606083018890526001600160a01b0389168752868652938620805480850182559087529490952081516004909502019384559351908301555182919060028201906107189082610f5f565b50606091909101516003909101556001600160a01b038316600090815260026020908152604080832042905560019091529020548511156107a9576001600160a01b03831660008181526001602052604090819020879055517f0a342f7b454699ba79250418342a055131578860ecf940c6a3198d7445d27790906107a09088815260200190565b60405180910390a25b604080518681524260208201529081018390526001600160a01b038416907fb3be138a7383b35fb1d3e031a5cc3e8d91d571ef4ad16825e4f9e3fd534578729060600160405180910390a25050505050565b6001600160a01b038116600090815260208181526040808320805482518185028101850190935280835260609492939192909184015b828210156109135783829060005260206000209060040201604051806080016040529081600082015481526020016001820154815260200160028201805461087890610eaf565b80601f01602080910402602001604051908101604052809291908181526020018280546108a490610eaf565b80156108f15780601f106108c6576101008083540402835291602001916108f1565b820191906000526020600020905b8154815290600101906020018083116108d457829003601f168201915b5050505050815260200160038201548152505081526020019060010190610831565b505050509050919050565b6004546001600160a01b031633146109485760405162461bcd60e51b815260040161030790610e69565b600454600160a01b900460ff16156109975760405162461bcd60e51b815260206004820152601260248201527110dbdb9d1c9858dd081a5cc81c185d5cd95960721b6044820152606401610307565b600083116109e75760405162461bcd60e51b815260206004820152601c60248201527f53636f7265206d7573742062652067726561746572207468616e2030000000006044820152606401610307565b60008181526003602052604090205460ff1615610a3f5760405162461bcd60e51b815260206004820152601660248201527511d85b59481a185cda08185b1c9958591e481d5cd95960521b6044820152606401610307565b6000818152600360209081526040808320805460ff191660019081179091558151608081018352878152428185019081528184018881526060830188905233875286865293862080548085018255908752949095208151600490950201938455935190830155518291906002820190610ab89082610f5f565b506060919091015160039091015533600090815260016020526040902054841115610b2a573360008181526001602052604090819020869055517f0a342f7b454699ba79250418342a055131578860ecf940c6a3198d7445d2779090610b219087815260200190565b60405180910390a25b6040805185815242602082015290810183905233907fb3be138a7383b35fb1d3e031a5cc3e8d91d571ef4ad16825e4f9e3fd534578729060600160405180910390a250505050565b600060208284031215610b8457600080fd5b81358015158114610b9457600080fd5b9392505050565b80356001600160a01b0381168114610bb257600080fd5b919050565b60008060408385031215610bca57600080fd5b610bd383610b9b565b946020939093013593505050565b6000815180845260005b81811015610c0757602081850181015186830182015201610beb565b506000602082860101526020601f19601f83011685010191505092915050565b848152836020820152608060408201526000610c466080830185610be1565b905082606083015295945050505050565b600060208284031215610c6957600080fd5b610b9482610b9b565b634e487b7160e01b600052604160045260246000fd5b600082601f830112610c9957600080fd5b813567ffffffffffffffff80821115610cb457610cb4610c72565b604051601f8301601f19908116603f01168101908282118183101715610cdc57610cdc610c72565b81604052838152866020858801011115610cf557600080fd5b836020870160208301376000602085830101528094505050505092915050565b60008060008060808587031215610d2b57600080fd5b84359350602085013567ffffffffffffffff811115610d4957600080fd5b610d5587828801610c88565b935050610d6460408601610b9b565b9396929550929360600135925050565b600060208284031215610d8657600080fd5b5035919050565b60006020808301818452808551808352604092508286019150828160051b87010184880160005b83811015610e0b57603f1989840301855281516080815185528882015189860152878201518189870152610dea82870182610be1565b60609384015196909301959095525094870194925090860190600101610db4565b509098975050505050505050565b600080600060608486031215610e2e57600080fd5b83359250602084013567ffffffffffffffff811115610e4c57600080fd5b610e5886828701610c88565b925050604084013590509250925092565b60208082526026908201527f4f6e6c792067616d65206f776e65722063616e2063616c6c20746869732066756040820152653731ba34b7b760d11b606082015260800190565b600181811c90821680610ec357607f821691505b602082108103610ee357634e487b7160e01b600052602260045260246000fd5b50919050565b80820180821115610f0a57634e487b7160e01b600052601160045260246000fd5b92915050565b601f821115610f5a57600081815260208120601f850160051c81016020861015610f375750805b601f850160051c820191505b81811015610f5657828155600101610f43565b5050505b505050565b815167ffffffffffffffff811115610f7957610f79610c72565b610f8d81610f878454610eaf565b84610f10565b602080601f831160018114610fc25760008415610faa5750858301515b600019600386901b1c1916600185901b178555610f56565b600085815260208120601f198616915b82811015610ff157888601518255948401946001909101908401610fd2565b508582101561100f5787850151600019600388901b60f8161c191681555b5050505050600190811b0190555056fea2646970667358221220d8608f6cb4fc6da5ec17428a7fca686761368c59328f5a1f03751333be87dc5e64736f6c63430008130033",
  "linkReferences": {},
  "deployedLinkReferences": {}
}