{
  "_format": "hh-sol-artifact-1",
  "contractName": "ScoreBoard",
  "sourceName": "contracts/ScoreBoard.sol",
  "abi": [
    {
      "inputs": [],
      "stateMutability": "nonpayable",
      "type": "constructor"
    },
    {
      "anonymous": false,
      "inputs": [
        {
          "indexed": true,
          "internalType": "address",
          "name": "player",
          "type": "address"
        },
        {
          "indexed": false,
          "internalType": "uint256",
          "name": "newBestScore",
          "type": "uint256"
        }
      ],
      "name": "BestScoreUpdated",
      "type": "event"
    },
    {
      "anonymous": false,
      "inputs": [
        {
          "indexed": false,
          "internalType": "bool",
          "name": "paused",
          "type": "bool"
        }
      ],
      "name": "ContractPaused",
      "type": "event"
    },
    {
      "anonymous": false,
      "inputs": [
        {
          "indexed": true,
          "internalType": "address",
          "name": "oldOwner",
          "type": "address"
        },
        {
          "indexed": true,
          "internalType": "address",
          "name": "newOwner",
          "type": "address"
        }
      ],
      "name": "GameOwnerUpdated",
      "type": "event"
    },
    {
      "anonymous": false,
      "inputs": [
        {
          "indexed": true,
          "internalType": "address",
          "name": "player",
          "type": "address"
        },
        {
          "indexed": false,
          "internalType": "uint256",
          "name": "score",
          "type": "uint256"
        },
        {
          "indexed": false,
          "internalType": "uint256",
          "name": "timestamp",
          "type": "uint256"
        },
        {
          "indexed": false,
          "internalType": "bytes32",
          "name": "gameHash",
          "type": "bytes32"
        }
      ],
      "name": "ScoreRecorded",
      "type": "event"
    },
    {
      "anonymous": false,
      "inputs": [
        {
          "indexed": false,
          "internalType": "bytes32",
          "name": "newKey",
          "type": "bytes32"
        }
      ],
      "name": "SecurityKeyUpdated",
      "type": "event"
    },
    {
      "inputs": [],
      "name": "MIN_TIME_BETWEEN_SCORES",
      "outputs": [
        {
          "internalType": "uint256",
          "name": "",
          "type": "uint256"
        }
      ],
      "stateMutability": "view",
      "type": "function"
    },
    {
      "inputs": [
        {
          "internalType": "uint256",
          "name": "",
          "type": "uint256"
        }
      ],
      "name": "allPlayers",
      "outputs": [
        {
          "internalType": "address",
          "name": "",
          "type": "address"
        }
      ],
      "stateMutability": "view",
      "type": "function"
    },
    {
      "inputs": [],
      "name": "gameOwner",
      "outputs": [
        {
          "internalType": "address",
          "name": "",
          "type": "address"
        }
      ],
      "stateMutability": "view",
      "type": "function"
    },
    {
      "inputs": [],
      "name": "getContractInfo",
      "outputs": [
        {
          "internalType": "address",
          "name": "_gameOwner",
          "type": "address"
        },
        {
          "internalType": "bool",
          "name": "_paused",
          "type": "bool"
        },
        {
          "internalType": "uint256",
          "name": "_minTimeBetweenScores",
          "type": "uint256"
        },
        {
          "internalType": "bool",
          "name": "_securityKeySet",
          "type": "bool"
        }
      ],
      "stateMutability": "view",
      "type": "function"
    },
    {
      "inputs": [
        {
          "internalType": "uint256",
          "name": "_offset",
          "type": "uint256"
        },
        {
          "internalType": "uint256",
          "name": "_limit",
          "type": "uint256"
        }
      ],
      "name": "getLeaderboard",
      "outputs": [
        {
          "components": [
            {
              "internalType": "uint256",
              "name": "score",
              "type": "uint256"
            },
            {
              "internalType": "string",
              "name": "playerName",
              "type": "string"
            },
            {
              "internalType": "address",
              "name": "playerAddress",
              "type": "address"
            }
          ],
          "internalType": "struct ScoreBoard.LeaderboardEntry[]",
          "name": "",
          "type": "tuple[]"
        }
      ],
      "stateMutability": "view",
      "type": "function"
    },
    {
      "inputs": [
        {
          "internalType": "address",
          "name": "_player",
          "type": "address"
        }
      ],
      "name": "getPlayerBestScore",
      "outputs": [
        {
          "internalType": "uint256",
          "name": "",
          "type": "uint256"
        }
      ],
      "stateMutability": "view",
      "type": "function"
    },
    {
      "inputs": [
        {
          "internalType": "address",
          "name": "_player",
          "type": "address"
        }
      ],
      "name": "getPlayerScores",
      "outputs": [
        {
          "components": [
            {
              "internalType": "uint256",
              "name": "score",
              "type": "uint256"
            },
            {
              "internalType": "uint256",
              "name": "timestamp",
              "type": "uint256"
            },
            {
              "internalType": "string",
              "name": "playerName",
              "type": "string"
            },
            {
              "internalType": "bytes32",
              "name": "gameHash",
              "type": "bytes32"
            }
          ],
          "internalType": "struct ScoreBoard.Score[]",
          "name": "",
          "type": "tuple[]"
        }
      ],
      "stateMutability": "view",
      "type": "function"
    },
    {
      "inputs": [
        {
          "internalType": "address",
          "name": "_player",
          "type": "address"
        }
      ],
      "name": "getScoreCount",
      "outputs": [
        {
          "internalType": "uint256",
          "name": "",
          "type": "uint256"
        }
      ],
      "stateMutability": "view",
      "type": "function"
    },
    {
      "inputs": [],
      "name": "getTotalScores",
      "outputs": [
        {
          "internalType": "uint256",
          "name": "",
          "type": "uint256"
        }
      ],
      "stateMutability": "view",
      "type": "function"
    },
    {
      "inputs": [
        {
          "internalType": "address",
          "name": "",
          "type": "address"
        }
      ],
      "name": "lastScoreTimestamp",
      "outputs": [
        {
          "internalType": "uint256",
          "name": "",
          "type": "uint256"
        }
      ],
      "stateMutability": "view",
      "type": "function"
    },
    {
      "inputs": [],
      "name": "paused",
      "outputs": [
        {
          "internalType": "bool",
          "name": "",
          "type": "bool"
        }
      ],
      "stateMutability": "view",
      "type": "function"
    },
    {
      "inputs": [
        {
          "internalType": "address",
          "name": "",
          "type": "address"
        }
      ],
      "name": "playerBestScore",
      "outputs": [
        {
          "internalType": "uint256",
          "name": "",
          "type": "uint256"
        }
      ],
      "stateMutability": "view",
      "type": "function"
    },
    {
      "inputs": [
        {
          "internalType": "address",
          "name": "",
          "type": "address"
        }
      ],
      "name": "playerExists",
      "outputs": [
        {
          "internalType": "bool",
          "name": "",
          "type": "bool"
        }
      ],
      "stateMutability": "view",
      "type": "function"
    },
    {
      "inputs": [
        {
          "internalType": "address",
          "name": "",
          "type": "address"
        }
      ],
      "name": "playerNames",
      "outputs": [
        {
          "internalType": "string",
          "name": "",
          "type": "string"
        }
      ],
      "stateMutability": "view",
      "type": "function"
    },
    {
      "inputs": [
        {
          "internalType": "address",
          "name": "",
          "type": "address"
        },
        {
          "internalType": "uint256",
          "name": "",
          "type": "uint256"
        }
      ],
      "name": "playerScores",
      "outputs": [
        {
          "internalType": "uint256",
          "name": "score",
          "type": "uint256"
        },
        {
          "internalType": "uint256",
          "name": "timestamp",
          "type": "uint256"
        },
        {
          "internalType": "string",
          "name": "playerName",
          "type": "string"
        },
        {
          "internalType": "bytes32",
          "name": "gameHash",
          "type": "bytes32"
        }
      ],
      "stateMutability": "view",
      "type": "function"
    },
    {
      "inputs": [
        {
          "internalType": "uint256",
          "name": "_score",
          "type": "uint256"
        },
        {
          "internalType": "string",
          "name": "_playerName",
          "type": "string"
        },
        {
          "internalType": "bytes32",
          "name": "_gameHash",
          "type": "bytes32"
        },
        {
          "internalType": "bytes",
          "name": "_signature",
          "type": "bytes"
        }
      ],
      "name": "recordScore",
      "outputs": [],
      "stateMutability": "nonpayable",
      "type": "function"
    },
    {
      "inputs": [
        {
          "internalType": "uint256",
          "name": "_score",
          "type": "uint256"
        },
        {
          "internalType": "string",
          "name": "_playerName",
          "type": "string"
        },
        {
          "internalType": "address",
          "name": "_playerAddress",
          "type": "address"
        },
        {
          "internalType": "bytes32",
          "name": "_gameHash",
          "type": "bytes32"
        }
      ],
      "name": "recordScoreEmergency",
      "outputs": [],
      "stateMutability": "nonpayable",
      "type": "function"
    },
    {
      "inputs": [],
      "name": "securityKey",
      "outputs": [
        {
          "internalType": "bytes32",
          "name": "",
          "type": "bytes32"
        }
      ],
      "stateMutability": "view",
      "type": "function"
    },
    {
      "inputs": [],
      "name": "securityKeySet",
      "outputs": [
        {
          "internalType": "bool",
          "name": "",
          "type": "bool"
        }
      ],
      "stateMutability": "view",
      "type": "function"
    },
    {
      "inputs": [
        {
          "internalType": "address",
          "name": "_newOwner",
          "type": "address"
        }
      ],
      "name": "setGameOwner",
      "outputs": [],
      "stateMutability": "nonpayable",
      "type": "function"
    },
    {
      "inputs": [
        {
          "internalType": "bool",
          "name": "_paused",
          "type": "bool"
        }
      ],
      "name": "setPaused",
      "outputs": [],
      "stateMutability": "nonpayable",
      "type": "function"
    },
    {
      "inputs": [
        {
          "internalType": "bytes32",
          "name": "_securityKey",
          "type": "bytes32"
        }
      ],
      "name": "setSecurityKey",
      "outputs": [],
      "stateMutability": "nonpayable",
      "type": "function"
    },
    {
      "inputs": [
        {
          "internalType": "bytes32",
          "name": "",
          "type": "bytes32"
        }
      ],
      "name": "usedGameHashes",
      "outputs": [
        {
          "internalType": "bool",
          "name": "",
          "type": "bool"
        }
      ],
      "stateMutability": "view",
      "type": "function"
    }
  ],
  "bytecode": "0x60806040526007805460ff60a01b191690556009805460ff1916905534801561002757600080fd5b50600780546001600160a01b03191633179055611bb6806100496000396000f3fe608060405234801561001057600080fd5b506004361061014d5760003560e01c8063915ec958116100c3578063b23addea1161007c578063b23addea1461034d578063bbe5230014610360578063cd38268014610383578063d8abfda0146103ac578063e66254b7146103b9578063f6b12f28146103d957600080fd5b8063915ec958146102d15780639471676c146102d9578063a5a146d6146102e1578063a8117484146102ea578063b16173f61461030a578063b162f2571461032d57600080fd5b80635c975abb116101155780635c975abb146101dd57806373055bc31461020157806373af16fc1461022457806374f819af146102445780637946f9b1146102575780637cc1f8671461028e57600080fd5b806301af1f91146101525780630544ce5e1461016757806316c38b3c146101975780631e70756e146101aa57806343b978b3146101bd575b600080fd5b6101656101603660046115fb565b6103ec565b005b61017a61017536600461165a565b610706565b6040516001600160a01b0390911681526020015b60405180910390f35b6101656101a5366004611673565b610730565b6101656101b836600461165a565b6107b2565b6101d06101cb366004611695565b610820565b60405161018e9190611700565b6007546101f190600160a01b900460ff1681565b604051901515815260200161018e565b61021461020f366004611713565b6108ba565b60405161018e949392919061173d565b61023761023236600461176d565b61098f565b60405161018e919061178f565b610165610252366004611695565b610d79565b610280610265366004611695565b6001600160a01b031660009081526020819052604090205490565b60405190815260200161018e565b600754600954604080516001600160a01b038416815260ff600160a01b909404841615156020820152601e9181019190915291161515606082015260800161018e565b610280601e81565b600454610280565b61028060085481565b6102806102f8366004611695565b60016020526000908152604090205481565b6101f161031836600461165a565b60036020526000908152604090205460ff1681565b61034061033b366004611695565b610e3d565b60405161018e9190611819565b61016561035b366004611897565b610f60565b6101f161036e366004611695565b60056020526000908152604090205460ff1681565b610280610391366004611695565b6001600160a01b031660009081526001602052604090205490565b6009546101f19060ff1681565b6102806103c7366004611695565b60026020526000908152604090205481565b60075461017a906001600160a01b031681565b6007546001600160a01b0316331461041f5760405162461bcd60e51b815260040161041690611922565b60405180910390fd5b600754600160a01b900460ff161561046e5760405162461bcd60e51b815260206004820152601260248201527110dbdb9d1c9858dd081a5cc81c185d5cd95960721b6044820152606401610416565b600084116104be5760405162461bcd60e51b815260206004820152601c60248201527f53636f7265206d7573742062652067726561746572207468616e2030000000006044820152606401610416565b60008181526003602052604090205460ff16156105165760405162461bcd60e51b815260206004820152601660248201527511d85b59481a185cda08185b1c9958591e481d5cd95960521b6044820152606401610416565b6000818152600360209081526040808320805460ff19166001908117909155815160808101835288815242818501908152818401898152606083018890526001600160a01b03891687528686529386208054808501825590875294909520815160049095020193845593519083015551829190600282019061059890826119f1565b50606091909101516003909101556001600160a01b03831660009081526005602052604090205460ff1661063e576004805460018082019092557f8a35acfbc15ff81a39ae7d344fd709f28e8600b4aa8c65c6b64bfe7fe36bd19b0180546001600160a01b0319166001600160a01b0386169081179091556000908152600560209081526040808320805460ff1916909417909355600690522061063c85826119f1565b505b6001600160a01b0383166000908152600160205260409020548511156106b4576001600160a01b03831660008181526001602052604090819020879055517f0a342f7b454699ba79250418342a055131578860ecf940c6a3198d7445d27790906106ab9088815260200190565b60405180910390a25b604080518681524260208201529081018390526001600160a01b038416907fb3be138a7383b35fb1d3e031a5cc3e8d91d571ef4ad16825e4f9e3fd534578729060600160405180910390a25050505050565b6004818154811061071657600080fd5b6000918252602090912001546001600160a01b0316905081565b6007546001600160a01b0316331461075a5760405162461bcd60e51b815260040161041690611922565b60078054821515600160a01b0260ff60a01b199091161790556040517f752d7e161ff5146f80e3820893176eb40532811e5e20400dfdde57455213706a906107a790831515815260200190565b60405180910390a150565b6007546001600160a01b031633146107dc5760405162461bcd60e51b815260040161041690611922565b60088190556009805460ff191660011790556040517ffd64e634a0e2ddb14d2c9621227e952d333f3fe83dcf1eb7259b14d1ed156e2c906107a79083815260200190565b6006602052600090815260409020805461083990611968565b80601f016020809104026020016040519081016040528092919081815260200182805461086590611968565b80156108b25780601f10610887576101008083540402835291602001916108b2565b820191906000526020600020905b81548152906001019060200180831161089557829003601f168201915b505050505081565b600060205281600052604060002081815481106108d657600080fd5b90600052602060002090600402016000915091505080600001549080600101549080600201805461090690611968565b80601f016020809104026020016040519081016040528092919081815260200182805461093290611968565b801561097f5780601f106109545761010080835404028352916020019161097f565b820191906000526020600020905b81548152906001019060200180831161096257829003601f168201915b5050505050908060030154905084565b6004546060908084106109d65760408051600080825260208201909252906109cd565b6109ba611502565b8152602001906001900390816109b25790505b50915050610d73565b60006109e28486611ac7565b9050818111156109ef5750805b60006109fb8683611ada565b905060008167ffffffffffffffff811115610a1857610a1861152c565b604051908082528060200260200182016040528015610a5157816020015b610a3e611502565b815260200190600190039081610a365790505b50905060008467ffffffffffffffff811115610a6f57610a6f61152c565b604051908082528060200260200182016040528015610aa857816020015b610a95611502565b815260200190600190039081610a8d5790505b50905060005b85811015610bd957600060048281548110610acb57610acb611aed565b6000918252602080832090910154604080516060810182526001600160a01b03909216808552600184528185205483528085526006845293208054939450909291830191610b1890611968565b80601f0160208091040260200160405190810160405280929190818152602001828054610b4490611968565b8015610b915780601f10610b6657610100808354040283529160200191610b91565b820191906000526020600020905b815481529060010190602001808311610b7457829003601f168201915b50505050508152602001826001600160a01b0316815250838381518110610bba57610bba611aed565b6020026020010181905250508080610bd190611b03565b915050610aae565b5060005b610be8600187611ada565b811015610d0b5760005b6001610bfe8389611ada565b610c089190611ada565b811015610cf85782610c1b826001611ac7565b81518110610c2b57610c2b611aed565b602002602001015160000151838281518110610c4957610c49611aed565b6020026020010151600001511015610ce6576000838281518110610c6f57610c6f611aed565b6020026020010151905083826001610c879190611ac7565b81518110610c9757610c97611aed565b6020026020010151848381518110610cb157610cb1611aed565b60209081029190910101528084610cc9846001611ac7565b81518110610cd957610cd9611aed565b6020026020010181905250505b80610cf081611b03565b915050610bf2565b5080610d0381611b03565b915050610bdd565b5060005b83811015610d6a5781610d22828b611ac7565b81518110610d3257610d32611aed565b6020026020010151838281518110610d4c57610d4c611aed565b60200260200101819052508080610d6290611b03565b915050610d0f565b50909450505050505b92915050565b6007546001600160a01b03163314610da35760405162461bcd60e51b815260040161041690611922565b6001600160a01b038116610deb5760405162461bcd60e51b815260206004820152600f60248201526e496e76616c6964206164647265737360881b6044820152606401610416565b600780546001600160a01b038381166001600160a01b0319831681179093556040519116919082907f8b9f5a3953e06358dbef331b0c981954ecb1a96d7de041b6d9930af74b4da56c90600090a35050565b6001600160a01b038116600090815260208181526040808320805482518185028101850190935280835260609492939192909184015b82821015610f5557838290600052602060002090600402016040518060800160405290816000820154815260200160018201548152602001600282018054610eba90611968565b80601f0160208091040260200160405190810160405280929190818152602001828054610ee690611968565b8015610f335780601f10610f0857610100808354040283529160200191610f33565b820191906000526020600020905b815481529060010190602001808311610f1657829003601f168201915b5050505050815260200160038201548152505081526020019060010190610e73565b505050509050919050565b600754600160a01b900460ff1615610faf5760405162461bcd60e51b815260206004820152601260248201527110dbdb9d1c9858dd081a5cc81c185d5cd95960721b6044820152606401610416565b60008411610fff5760405162461bcd60e51b815260206004820152601c60248201527f53636f7265206d7573742062652067726561746572207468616e2030000000006044820152606401610416565b60008281526003602052604090205460ff16156110575760405162461bcd60e51b815260206004820152601660248201527511d85b59481a185cda08185b1c9958591e481d5cd95960521b6044820152606401610416565b3360009081526002602052604090205461107390601e90611ac7565b4210156110c25760405162461bcd60e51b815260206004820152601960248201527f546f6f20736f6f6e2073696e6365206c6173742073636f7265000000000000006044820152606401610416565b60095460ff1661110b5760405162461bcd60e51b815260206004820152601460248201527314d958dd5c9a5d1e481ad95e481b9bdd081cd95d60621b6044820152606401610416565b6000848433856040516020016111249493929190611b1c565b60405160208183030381529060405280519060200120905060008160405160200161117b91907f19457468657265756d205369676e6564204d6573736167653a0a3332000000008152601c810191909152603c0190565b604051602081830303815290604052805190602001209050600061119f82856113bd565b6007549091506001600160a01b038083169116146111f35760405162461bcd60e51b8152602060048201526011602482015270496e76616c6964207369676e617475726560781b6044820152606401610416565b6000858152600360209081526040808320805460ff1916600190811790915581516080810183528b8152428185019081528184018c8152606083018c90523387528686529386208054808501825590875294909520815160049095020193845593519083015551829190600282019061126c90826119f1565b5060609190910151600390910155336000908152600260209081526040808320429055600590915290205460ff1661130d576004805460018181019092557f8a35acfbc15ff81a39ae7d344fd709f28e8600b4aa8c65c6b64bfe7fe36bd19b0180546001600160a01b031916339081179091556000908152600560209081526040808320805460ff1916909417909355600690522061130b88826119f1565b505b336000908152600160205260409020548811156113715733600081815260016020526040908190208a9055517f0a342f7b454699ba79250418342a055131578860ecf940c6a3198d7445d2779090611368908b815260200190565b60405180910390a25b6040805189815242602082015290810187905233907fb3be138a7383b35fb1d3e031a5cc3e8d91d571ef4ad16825e4f9e3fd534578729060600160405180910390a25050505050505050565b600081516041146114105760405162461bcd60e51b815260206004820152601860248201527f496e76616c6964207369676e6174757265206c656e67746800000000000000006044820152606401610416565b60208201516040830151606084015160001a601b81101561143957611436601b82611b67565b90505b8060ff16601b148061144e57508060ff16601c145b61149a5760405162461bcd60e51b815260206004820152601b60248201527f496e76616c6964207369676e6174757265202776272076616c756500000000006044820152606401610416565b60408051600081526020810180835288905260ff831691810191909152606081018490526080810183905260019060a0016020604051602081039080840390855afa1580156114ed573d6000803e3d6000fd5b5050604051601f190151979650505050505050565b6040518060600160405280600081526020016060815260200160006001600160a01b031681525090565b634e487b7160e01b600052604160045260246000fd5b600067ffffffffffffffff8084111561155d5761155d61152c565b604051601f8501601f19908116603f011681019082821181831017156115855761158561152c565b8160405280935085815286868601111561159e57600080fd5b858560208301376000602087830101525050509392505050565b600082601f8301126115c957600080fd5b6115d883833560208501611542565b9392505050565b80356001600160a01b03811681146115f657600080fd5b919050565b6000806000806080858703121561161157600080fd5b84359350602085013567ffffffffffffffff81111561162f57600080fd5b61163b878288016115b8565b93505061164a604086016115df565b9396929550929360600135925050565b60006020828403121561166c57600080fd5b5035919050565b60006020828403121561168557600080fd5b813580151581146115d857600080fd5b6000602082840312156116a757600080fd5b6115d8826115df565b60005b838110156116cb5781810151838201526020016116b3565b50506000910152565b600081518084526116ec8160208601602086016116b0565b601f01601f19169290920160200192915050565b6020815260006115d860208301846116d4565b6000806040838503121561172657600080fd5b61172f836115df565b946020939093013593505050565b84815283602082015260806040820152600061175c60808301856116d4565b905082606083015295945050505050565b6000806040838503121561178057600080fd5b50508035926020909101359150565b60006020808301818452808551808352604092508286019150828160051b87010184880160005b8381101561180b57603f19898403018552815160608151855288820151818a8701526117e4828701826116d4565b928901516001600160a01b03169589019590955250948701949250908601906001016117b6565b509098975050505050505050565b60006020808301818452808551808352604092508286019150828160051b87010184880160005b8381101561180b57603f1989840301855281516080815185528882015189860152878201518189870152611876828701826116d4565b60609384015196909301959095525094870194925090860190600101611840565b600080600080608085870312156118ad57600080fd5b84359350602085013567ffffffffffffffff808211156118cc57600080fd5b6118d8888389016115b8565b94506040870135935060608701359150808211156118f557600080fd5b508501601f8101871361190757600080fd5b61191687823560208401611542565b91505092959194509250565b60208082526026908201527f4f6e6c792067616d65206f776e65722063616e2063616c6c20746869732066756040820152653731ba34b7b760d11b606082015260800190565b600181811c9082168061197c57607f821691505b60208210810361199c57634e487b7160e01b600052602260045260246000fd5b50919050565b601f8211156119ec57600081815260208120601f850160051c810160208610156119c95750805b601f850160051c820191505b818110156119e8578281556001016119d5565b5050505b505050565b815167ffffffffffffffff811115611a0b57611a0b61152c565b611a1f81611a198454611968565b846119a2565b602080601f831160018114611a545760008415611a3c5750858301515b600019600386901b1c1916600185901b1785556119e8565b600085815260208120601f198616915b82811015611a8357888601518255948401946001909101908401611a64565b5085821015611aa15787850151600019600388901b60f8161c191681555b5050505050600190811b01905550565b634e487b7160e01b600052601160045260246000fd5b80820180821115610d7357610d73611ab1565b81810381811115610d7357610d73611ab1565b634e487b7160e01b600052603260045260246000fd5b600060018201611b1557611b15611ab1565b5060010190565b84815260008451611b348160208501602089016116b0565b80830190506bffffffffffffffffffffffff198560601b1660208201528360348201526054810191505095945050505050565b60ff8181168382160190811115610d7357610d73611ab156fea2646970667358221220c4f1e90cad5f7250c413ca10c65c762d04ea2f2be7f940e8d4745e905cb4df3164736f6c63430008130033",
  "linkReferences": {},
  "deployedLinkReferences": {}
}