{
  "_format": "hh-sol-artifact-1",
  "contractName": "ScoreBoard",
  "sourceName": "contracts/ScoreBoard.sol",
  "abi": [
    {
      "inputs": [],
      "stateMutability": "nonpayable",
      "type": "constructor"
    },
    {
      "anonymous": false,
      "inputs": [
        {
          "indexed": true,
          "internalType": "address",
          "name": "player",
          "type": "address"
        },
        {
          "indexed": false,
          "internalType": "uint256",
          "name": "newBestScore",
          "type": "uint256"
        }
      ],
      "name": "BestScoreUpdated",
      "type": "event"
    },
    {
      "anonymous": false,
      "inputs": [
        {
          "indexed": false,
          "internalType": "bool",
          "name": "paused",
          "type": "bool"
        }
      ],
      "name": "ContractPaused",
      "type": "event"
    },
    {
      "anonymous": false,
      "inputs": [
        {
          "indexed": true,
          "internalType": "address",
          "name": "oldOwner",
          "type": "address"
        },
        {
          "indexed": true,
          "internalType": "address",
          "name": "newOwner",
          "type": "address"
        }
      ],
      "name": "GameOwnerUpdated",
      "type": "event"
    },
    {
      "anonymous": false,
      "inputs": [
        {
          "indexed": true,
          "internalType": "address",
          "name": "player",
          "type": "address"
        },
        {
          "indexed": false,
          "internalType": "uint256",
          "name": "score",
          "type": "uint256"
        },
        {
          "indexed": false,
          "internalType": "uint256",
          "name": "timestamp",
          "type": "uint256"
        },
        {
          "indexed": false,
          "internalType": "bytes32",
          "name": "gameHash",
          "type": "bytes32"
        }
      ],
      "name": "ScoreRecorded",
      "type": "event"
    },
    {
      "inputs": [],
      "name": "MIN_TIME_BETWEEN_SCORES",
      "outputs": [
        {
          "internalType": "uint256",
          "name": "",
          "type": "uint256"
        }
      ],
      "stateMutability": "view",
      "type": "function"
    },
    {
      "inputs": [
        {
          "internalType": "uint256",
          "name": "",
          "type": "uint256"
        }
      ],
      "name": "allPlayers",
      "outputs": [
        {
          "internalType": "address",
          "name": "",
          "type": "address"
        }
      ],
      "stateMutability": "view",
      "type": "function"
    },
    {
      "inputs": [],
      "name": "gameOwner",
      "outputs": [
        {
          "internalType": "address",
          "name": "",
          "type": "address"
        }
      ],
      "stateMutability": "view",
      "type": "function"
    },
    {
      "inputs": [],
      "name": "getContractInfo",
      "outputs": [
        {
          "internalType": "address",
          "name": "_gameOwner",
          "type": "address"
        },
        {
          "internalType": "bool",
          "name": "_paused",
          "type": "bool"
        },
        {
          "internalType": "uint256",
          "name": "_minTimeBetweenScores",
          "type": "uint256"
        }
      ],
      "stateMutability": "view",
      "type": "function"
    },
    {
      "inputs": [
        {
          "internalType": "uint256",
          "name": "_offset",
          "type": "uint256"
        },
        {
          "internalType": "uint256",
          "name": "_limit",
          "type": "uint256"
        }
      ],
      "name": "getLeaderboard",
      "outputs": [
        {
          "components": [
            {
              "internalType": "uint256",
              "name": "score",
              "type": "uint256"
            },
            {
              "internalType": "string",
              "name": "playerName",
              "type": "string"
            },
            {
              "internalType": "address",
              "name": "playerAddress",
              "type": "address"
            }
          ],
          "internalType": "struct ScoreBoard.LeaderboardEntry[]",
          "name": "",
          "type": "tuple[]"
        }
      ],
      "stateMutability": "view",
      "type": "function"
    },
    {
      "inputs": [
        {
          "internalType": "address",
          "name": "_player",
          "type": "address"
        }
      ],
      "name": "getPlayerBestScore",
      "outputs": [
        {
          "internalType": "uint256",
          "name": "",
          "type": "uint256"
        }
      ],
      "stateMutability": "view",
      "type": "function"
    },
    {
      "inputs": [
        {
          "internalType": "address",
          "name": "_player",
          "type": "address"
        }
      ],
      "name": "getPlayerScores",
      "outputs": [
        {
          "components": [
            {
              "internalType": "uint256",
              "name": "score",
              "type": "uint256"
            },
            {
              "internalType": "uint256",
              "name": "timestamp",
              "type": "uint256"
            },
            {
              "internalType": "string",
              "name": "playerName",
              "type": "string"
            },
            {
              "internalType": "bytes32",
              "name": "gameHash",
              "type": "bytes32"
            }
          ],
          "internalType": "struct ScoreBoard.Score[]",
          "name": "",
          "type": "tuple[]"
        }
      ],
      "stateMutability": "view",
      "type": "function"
    },
    {
      "inputs": [
        {
          "internalType": "address",
          "name": "_player",
          "type": "address"
        }
      ],
      "name": "getScoreCount",
      "outputs": [
        {
          "internalType": "uint256",
          "name": "",
          "type": "uint256"
        }
      ],
      "stateMutability": "view",
      "type": "function"
    },
    {
      "inputs": [],
      "name": "getTotalScores",
      "outputs": [
        {
          "internalType": "uint256",
          "name": "",
          "type": "uint256"
        }
      ],
      "stateMutability": "view",
      "type": "function"
    },
    {
      "inputs": [
        {
          "internalType": "address",
          "name": "",
          "type": "address"
        }
      ],
      "name": "lastScoreTimestamp",
      "outputs": [
        {
          "internalType": "uint256",
          "name": "",
          "type": "uint256"
        }
      ],
      "stateMutability": "view",
      "type": "function"
    },
    {
      "inputs": [],
      "name": "paused",
      "outputs": [
        {
          "internalType": "bool",
          "name": "",
          "type": "bool"
        }
      ],
      "stateMutability": "view",
      "type": "function"
    },
    {
      "inputs": [
        {
          "internalType": "address",
          "name": "",
          "type": "address"
        }
      ],
      "name": "playerBestScore",
      "outputs": [
        {
          "internalType": "uint256",
          "name": "",
          "type": "uint256"
        }
      ],
      "stateMutability": "view",
      "type": "function"
    },
    {
      "inputs": [
        {
          "internalType": "address",
          "name": "",
          "type": "address"
        }
      ],
      "name": "playerExists",
      "outputs": [
        {
          "internalType": "bool",
          "name": "",
          "type": "bool"
        }
      ],
      "stateMutability": "view",
      "type": "function"
    },
    {
      "inputs": [
        {
          "internalType": "address",
          "name": "",
          "type": "address"
        }
      ],
      "name": "playerNames",
      "outputs": [
        {
          "internalType": "string",
          "name": "",
          "type": "string"
        }
      ],
      "stateMutability": "view",
      "type": "function"
    },
    {
      "inputs": [
        {
          "internalType": "address",
          "name": "",
          "type": "address"
        },
        {
          "internalType": "uint256",
          "name": "",
          "type": "uint256"
        }
      ],
      "name": "playerScores",
      "outputs": [
        {
          "internalType": "uint256",
          "name": "score",
          "type": "uint256"
        },
        {
          "internalType": "uint256",
          "name": "timestamp",
          "type": "uint256"
        },
        {
          "internalType": "string",
          "name": "playerName",
          "type": "string"
        },
        {
          "internalType": "bytes32",
          "name": "gameHash",
          "type": "bytes32"
        }
      ],
      "stateMutability": "view",
      "type": "function"
    },
    {
      "inputs": [
        {
          "internalType": "uint256",
          "name": "_score",
          "type": "uint256"
        },
        {
          "internalType": "string",
          "name": "_playerName",
          "type": "string"
        },
        {
          "internalType": "address",
          "name": "_playerAddress",
          "type": "address"
        },
        {
          "internalType": "bytes32",
          "name": "_gameHash",
          "type": "bytes32"
        }
      ],
      "name": "recordScore",
      "outputs": [],
      "stateMutability": "nonpayable",
      "type": "function"
    },
    {
      "inputs": [
        {
          "internalType": "uint256",
          "name": "_score",
          "type": "uint256"
        },
        {
          "internalType": "string",
          "name": "_playerName",
          "type": "string"
        },
        {
          "internalType": "bytes32",
          "name": "_gameHash",
          "type": "bytes32"
        }
      ],
      "name": "recordScoreEmergency",
      "outputs": [],
      "stateMutability": "nonpayable",
      "type": "function"
    },
    {
      "inputs": [
        {
          "internalType": "address",
          "name": "_newOwner",
          "type": "address"
        }
      ],
      "name": "setGameOwner",
      "outputs": [],
      "stateMutability": "nonpayable",
      "type": "function"
    },
    {
      "inputs": [
        {
          "internalType": "bool",
          "name": "_paused",
          "type": "bool"
        }
      ],
      "name": "setPaused",
      "outputs": [],
      "stateMutability": "nonpayable",
      "type": "function"
    },
    {
      "inputs": [
        {
          "internalType": "bytes32",
          "name": "",
          "type": "bytes32"
        }
      ],
      "name": "usedGameHashes",
      "outputs": [
        {
          "internalType": "bool",
          "name": "",
          "type": "bool"
        }
      ],
      "stateMutability": "view",
      "type": "function"
    }
  ],
  "bytecode": "0x60806040526007805460ff60a01b1916905534801561001d57600080fd5b50600780546001600160a01b031916331790556117f58061003f6000396000f3fe608060405234801561001057600080fd5b506004361061012c5760003560e01c80639471676c116100ad578063bbe5230011610071578063bbe5230014610300578063cd38268014610323578063e66254b71461034c578063f6b12f281461036c578063f96f7e751461037f57600080fd5b80639471676c14610282578063a418a2d71461028a578063a81174841461029d578063b16173f6146102bd578063b162f257146102e057600080fd5b806373af16fc116100f457806373af16fc146101dd57806374f819af146101fd5780637946f9b1146102105780637cc1f86714610247578063915ec9581461027a57600080fd5b80630544ce5e1461013157806316c38b3c1461016157806343b978b3146101765780635c975abb1461019657806373055bc3146101ba575b600080fd5b61014461013f36600461121d565b610392565b6040516001600160a01b0390911681526020015b60405180910390f35b61017461016f366004611236565b6103bc565b005b61018961018436600461127b565b610447565b60405161015891906112dc565b6007546101aa90600160a01b900460ff1681565b6040519015158152602001610158565b6101cd6101c83660046112ef565b6104e1565b6040516101589493929190611319565b6101f06101eb366004611349565b6105b6565b604051610158919061136b565b61017461020b36600461127b565b6109a0565b61023961021e36600461127b565b6001600160a01b031660009081526020819052604090205490565b604051908152602001610158565b600754604080516001600160a01b0383168152600160a01b90920460ff1615156020830152601e90820152606001610158565b610239601e81565b600454610239565b610174610298366004611498565b610a64565b6102396102ab36600461127b565b60016020526000908152604090205481565b6101aa6102cb36600461121d565b60036020526000908152604090205460ff1681565b6102f36102ee36600461127b565b610df6565b60405161015891906114f7565b6101aa61030e36600461127b565b60056020526000908152604090205460ff1681565b61023961033136600461127b565b6001600160a01b031660009081526001602052604090205490565b61023961035a36600461127b565b60026020526000908152604090205481565b600754610144906001600160a01b031681565b61017461038d366004611575565b610f19565b600481815481106103a257600080fd5b6000918252602090912001546001600160a01b0316905081565b6007546001600160a01b031633146103ef5760405162461bcd60e51b81526004016103e6906115c5565b60405180910390fd5b60078054821515600160a01b0260ff60a01b199091161790556040517f752d7e161ff5146f80e3820893176eb40532811e5e20400dfdde57455213706a9061043c90831515815260200190565b60405180910390a150565b600660205260009081526040902080546104609061160b565b80601f016020809104026020016040519081016040528092919081815260200182805461048c9061160b565b80156104d95780601f106104ae576101008083540402835291602001916104d9565b820191906000526020600020905b8154815290600101906020018083116104bc57829003601f168201915b505050505081565b600060205281600052604060002081815481106104fd57600080fd5b90600052602060002090600402016000915091505080600001549080600101549080600201805461052d9061160b565b80601f01602080910402602001604051908101604052809291908181526020018280546105599061160b565b80156105a65780601f1061057b576101008083540402835291602001916105a6565b820191906000526020600020905b81548152906001019060200180831161058957829003601f168201915b5050505050908060030154905084565b6004546060908084106105fd5760408051600080825260208201909252906105f4565b6105e16111f3565b8152602001906001900390816105d95790505b5091505061099a565b6000610609848661165b565b9050818111156106165750805b6000610622868361166e565b905060008167ffffffffffffffff81111561063f5761063f6113f5565b60405190808252806020026020018201604052801561067857816020015b6106656111f3565b81526020019060019003908161065d5790505b50905060008467ffffffffffffffff811115610696576106966113f5565b6040519080825280602002602001820160405280156106cf57816020015b6106bc6111f3565b8152602001906001900390816106b45790505b50905060005b85811015610800576000600482815481106106f2576106f2611681565b6000918252602080832090910154604080516060810182526001600160a01b0390921680855260018452818520548352808552600684529320805493945090929183019161073f9061160b565b80601f016020809104026020016040519081016040528092919081815260200182805461076b9061160b565b80156107b85780601f1061078d576101008083540402835291602001916107b8565b820191906000526020600020905b81548152906001019060200180831161079b57829003601f168201915b50505050508152602001826001600160a01b03168152508383815181106107e1576107e1611681565b60200260200101819052505080806107f890611697565b9150506106d5565b5060005b61080f60018761166e565b8110156109325760005b6001610825838961166e565b61082f919061166e565b81101561091f578261084282600161165b565b8151811061085257610852611681565b60200260200101516000015183828151811061087057610870611681565b602002602001015160000151101561090d57600083828151811061089657610896611681565b60200260200101519050838260016108ae919061165b565b815181106108be576108be611681565b60200260200101518483815181106108d8576108d8611681565b602090810291909101015280846108f084600161165b565b8151811061090057610900611681565b6020026020010181905250505b8061091781611697565b915050610819565b508061092a81611697565b915050610804565b5060005b838110156109915781610949828b61165b565b8151811061095957610959611681565b602002602001015183828151811061097357610973611681565b6020026020010181905250808061098990611697565b915050610936565b50909450505050505b92915050565b6007546001600160a01b031633146109ca5760405162461bcd60e51b81526004016103e6906115c5565b6001600160a01b038116610a125760405162461bcd60e51b815260206004820152600f60248201526e496e76616c6964206164647265737360881b60448201526064016103e6565b600780546001600160a01b038381166001600160a01b0319831681179093556040519116919082907f8b9f5a3953e06358dbef331b0c981954ecb1a96d7de041b6d9930af74b4da56c90600090a35050565b6007546001600160a01b03163314610a8e5760405162461bcd60e51b81526004016103e6906115c5565b600754600160a01b900460ff1615610add5760405162461bcd60e51b815260206004820152601260248201527110dbdb9d1c9858dd081a5cc81c185d5cd95960721b60448201526064016103e6565b60008411610b2d5760405162461bcd60e51b815260206004820152601c60248201527f53636f7265206d7573742062652067726561746572207468616e20300000000060448201526064016103e6565b60008181526003602052604090205460ff1615610b855760405162461bcd60e51b815260206004820152601660248201527511d85b59481a185cda08185b1c9958591e481d5cd95960521b60448201526064016103e6565b6001600160a01b038216600090815260026020526040902054610baa90601e9061165b565b421015610bf95760405162461bcd60e51b815260206004820152601960248201527f546f6f20736f6f6e2073696e6365206c6173742073636f72650000000000000060448201526064016103e6565b6000818152600360209081526040808320805460ff19166001908117909155815160808101835288815242818501908152818401898152606083018890526001600160a01b038916875286865293862080548085018255908752949095208151600490950201938455935190830155518291906002820190610c7b90826116ff565b50606091909101516003909101556001600160a01b0383166000908152600260209081526040808320429055600590915290205460ff16610d2e576004805460018082019092557f8a35acfbc15ff81a39ae7d344fd709f28e8600b4aa8c65c6b64bfe7fe36bd19b0180546001600160a01b0319166001600160a01b0386169081179091556000908152600560209081526040808320805460ff19169094179093556006905220610d2c85826116ff565b505b6001600160a01b038316600090815260016020526040902054851115610da4576001600160a01b03831660008181526001602052604090819020879055517f0a342f7b454699ba79250418342a055131578860ecf940c6a3198d7445d2779090610d9b9088815260200190565b60405180910390a25b604080518681524260208201529081018390526001600160a01b038416907fb3be138a7383b35fb1d3e031a5cc3e8d91d571ef4ad16825e4f9e3fd534578729060600160405180910390a25050505050565b6001600160a01b038116600090815260208181526040808320805482518185028101850190935280835260609492939192909184015b82821015610f0e57838290600052602060002090600402016040518060800160405290816000820154815260200160018201548152602001600282018054610e739061160b565b80601f0160208091040260200160405190810160405280929190818152602001828054610e9f9061160b565b8015610eec5780601f10610ec157610100808354040283529160200191610eec565b820191906000526020600020905b815481529060010190602001808311610ecf57829003601f168201915b5050505050815260200160038201548152505081526020019060010190610e2c565b505050509050919050565b6007546001600160a01b03163314610f435760405162461bcd60e51b81526004016103e6906115c5565b600754600160a01b900460ff1615610f925760405162461bcd60e51b815260206004820152601260248201527110dbdb9d1c9858dd081a5cc81c185d5cd95960721b60448201526064016103e6565b60008311610fe25760405162461bcd60e51b815260206004820152601c60248201527f53636f7265206d7573742062652067726561746572207468616e20300000000060448201526064016103e6565b60008181526003602052604090205460ff161561103a5760405162461bcd60e51b815260206004820152601660248201527511d85b59481a185cda08185b1c9958591e481d5cd95960521b60448201526064016103e6565b6000818152600360209081526040808320805460ff1916600190811790915581516080810183528781524281850190815281840188815260608301889052338752868652938620805480850182559087529490952081516004909502019384559351908301555182919060028201906110b390826116ff565b50606091909101516003909101553360009081526005602052604090205460ff16611147576004805460018181019092557f8a35acfbc15ff81a39ae7d344fd709f28e8600b4aa8c65c6b64bfe7fe36bd19b0180546001600160a01b031916339081179091556000908152600560209081526040808320805460ff1916909417909355600690522061114584826116ff565b505b336000908152600160205260409020548411156111ab573360008181526001602052604090819020869055517f0a342f7b454699ba79250418342a055131578860ecf940c6a3198d7445d27790906111a29087815260200190565b60405180910390a25b6040805185815242602082015290810183905233907fb3be138a7383b35fb1d3e031a5cc3e8d91d571ef4ad16825e4f9e3fd534578729060600160405180910390a250505050565b6040518060600160405280600081526020016060815260200160006001600160a01b031681525090565b60006020828403121561122f57600080fd5b5035919050565b60006020828403121561124857600080fd5b8135801515811461125857600080fd5b9392505050565b80356001600160a01b038116811461127657600080fd5b919050565b60006020828403121561128d57600080fd5b6112588261125f565b6000815180845260005b818110156112bc576020818501810151868301820152016112a0565b506000602082860101526020601f19601f83011685010191505092915050565b6020815260006112586020830184611296565b6000806040838503121561130257600080fd5b61130b8361125f565b946020939093013593505050565b8481528360208201526080604082015260006113386080830185611296565b905082606083015295945050505050565b6000806040838503121561135c57600080fd5b50508035926020909101359150565b60006020808301818452808551808352604092508286019150828160051b87010184880160005b838110156113e757603f19898403018552815160608151855288820151818a8701526113c082870182611296565b928901516001600160a01b0316958901959095525094870194925090860190600101611392565b509098975050505050505050565b634e487b7160e01b600052604160045260246000fd5b600082601f83011261141c57600080fd5b813567ffffffffffffffff80821115611437576114376113f5565b604051601f8301601f19908116603f0116810190828211818310171561145f5761145f6113f5565b8160405283815286602085880101111561147857600080fd5b836020870160208301376000602085830101528094505050505092915050565b600080600080608085870312156114ae57600080fd5b84359350602085013567ffffffffffffffff8111156114cc57600080fd5b6114d88782880161140b565b9350506114e76040860161125f565b9396929550929360600135925050565b60006020808301818452808551808352604092508286019150828160051b87010184880160005b838110156113e757603f198984030185528151608081518552888201518986015287820151818987015261155482870182611296565b6060938401519690930195909552509487019492509086019060010161151e565b60008060006060848603121561158a57600080fd5b83359250602084013567ffffffffffffffff8111156115a857600080fd5b6115b48682870161140b565b925050604084013590509250925092565b60208082526026908201527f4f6e6c792067616d65206f776e65722063616e2063616c6c20746869732066756040820152653731ba34b7b760d11b606082015260800190565b600181811c9082168061161f57607f821691505b60208210810361163f57634e487b7160e01b600052602260045260246000fd5b50919050565b634e487b7160e01b600052601160045260246000fd5b8082018082111561099a5761099a611645565b8181038181111561099a5761099a611645565b634e487b7160e01b600052603260045260246000fd5b6000600182016116a9576116a9611645565b5060010190565b601f8211156116fa57600081815260208120601f850160051c810160208610156116d75750805b601f850160051c820191505b818110156116f6578281556001016116e3565b5050505b505050565b815167ffffffffffffffff811115611719576117196113f5565b61172d81611727845461160b565b846116b0565b602080601f831160018114611762576000841561174a5750858301515b600019600386901b1c1916600185901b1785556116f6565b600085815260208120601f198616915b8281101561179157888601518255948401946001909101908401611772565b50858210156117af5787850151600019600388901b60f8161c191681555b5050505050600190811b0190555056fea26469706673582212209468cf8f68368095f0558ed2e8c92fc7cc0238e1333e38d7af2cf8715d20da7e64736f6c63430008130033",
  "linkReferences": {},
  "deployedLinkReferences": {}
}